{
  "_format": "hh-sol-artifact-1",
  "contractName": "MNFT",
  "sourceName": "contracts/contract.sol",
  "abi": [
    {
      "inputs": [],
      "stateMutability": "nonpayable",
      "type": "constructor"
    },
    {
      "inputs": [
        {
          "internalType": "address",
          "name": "sender",
          "type": "address"
        },
        {
          "internalType": "uint256",
          "name": "tokenId",
          "type": "uint256"
        },
        {
          "internalType": "address",
          "name": "owner",
          "type": "address"
        }
      ],
      "name": "ERC721IncorrectOwner",
      "type": "error"
    },
    {
      "inputs": [
        {
          "internalType": "address",
          "name": "operator",
          "type": "address"
        },
        {
          "internalType": "uint256",
          "name": "tokenId",
          "type": "uint256"
        }
      ],
      "name": "ERC721InsufficientApproval",
      "type": "error"
    },
    {
      "inputs": [
        {
          "internalType": "address",
          "name": "approver",
          "type": "address"
        }
      ],
      "name": "ERC721InvalidApprover",
      "type": "error"
    },
    {
      "inputs": [
        {
          "internalType": "address",
          "name": "operator",
          "type": "address"
        }
      ],
      "name": "ERC721InvalidOperator",
      "type": "error"
    },
    {
      "inputs": [
        {
          "internalType": "address",
          "name": "owner",
          "type": "address"
        }
      ],
      "name": "ERC721InvalidOwner",
      "type": "error"
    },
    {
      "inputs": [
        {
          "internalType": "address",
          "name": "receiver",
          "type": "address"
        }
      ],
      "name": "ERC721InvalidReceiver",
      "type": "error"
    },
    {
      "inputs": [
        {
          "internalType": "address",
          "name": "sender",
          "type": "address"
        }
      ],
      "name": "ERC721InvalidSender",
      "type": "error"
    },
    {
      "inputs": [
        {
          "internalType": "uint256",
          "name": "tokenId",
          "type": "uint256"
        }
      ],
      "name": "ERC721NonexistentToken",
      "type": "error"
    },
    {
      "anonymous": false,
      "inputs": [
        {
          "indexed": true,
          "internalType": "address",
          "name": "owner",
          "type": "address"
        },
        {
          "indexed": true,
          "internalType": "address",
          "name": "approved",
          "type": "address"
        },
        {
          "indexed": true,
          "internalType": "uint256",
          "name": "tokenId",
          "type": "uint256"
        }
      ],
      "name": "Approval",
      "type": "event"
    },
    {
      "anonymous": false,
      "inputs": [
        {
          "indexed": true,
          "internalType": "address",
          "name": "owner",
          "type": "address"
        },
        {
          "indexed": true,
          "internalType": "address",
          "name": "operator",
          "type": "address"
        },
        {
          "indexed": false,
          "internalType": "bool",
          "name": "approved",
          "type": "bool"
        }
      ],
      "name": "ApprovalForAll",
      "type": "event"
    },
    {
      "anonymous": false,
      "inputs": [
        {
          "indexed": false,
          "internalType": "uint256",
          "name": "_fromTokenId",
          "type": "uint256"
        },
        {
          "indexed": false,
          "internalType": "uint256",
          "name": "_toTokenId",
          "type": "uint256"
        }
      ],
      "name": "BatchMetadataUpdate",
      "type": "event"
    },
    {
      "anonymous": false,
      "inputs": [
        {
          "indexed": false,
          "internalType": "uint256",
          "name": "_tokenId",
          "type": "uint256"
        }
      ],
      "name": "MetadataUpdate",
      "type": "event"
    },
    {
      "anonymous": false,
      "inputs": [
        {
          "indexed": false,
          "internalType": "uint256",
          "name": "itemId",
          "type": "uint256"
        },
        {
          "indexed": false,
          "internalType": "uint256",
          "name": "tokenId",
          "type": "uint256"
        },
        {
          "indexed": false,
          "internalType": "uint256",
          "name": "viewFee",
          "type": "uint256"
        },
        {
          "indexed": true,
          "internalType": "address",
          "name": "seller",
          "type": "address"
        }
      ],
      "name": "Offered",
      "type": "event"
    },
    {
      "anonymous": false,
      "inputs": [
        {
          "indexed": false,
          "internalType": "uint256",
          "name": "itemId",
          "type": "uint256"
        },
        {
          "indexed": false,
          "internalType": "uint256",
          "name": "tokenId",
          "type": "uint256"
        },
        {
          "indexed": false,
          "internalType": "uint256",
          "name": "viewFee",
          "type": "uint256"
        },
        {
          "indexed": true,
          "internalType": "address",
          "name": "viewer",
          "type": "address"
        }
      ],
      "name": "PaidForView",
      "type": "event"
    },
    {
      "anonymous": false,
      "inputs": [
        {
          "indexed": true,
          "internalType": "address",
          "name": "from",
          "type": "address"
        },
        {
          "indexed": true,
          "internalType": "address",
          "name": "to",
          "type": "address"
        },
        {
          "indexed": true,
          "internalType": "uint256",
          "name": "tokenId",
          "type": "uint256"
        }
      ],
      "name": "Transfer",
      "type": "event"
    },
    {
      "inputs": [
        {
          "internalType": "address",
          "name": "to",
          "type": "address"
        },
        {
          "internalType": "uint256",
          "name": "tokenId",
          "type": "uint256"
        }
      ],
      "name": "approve",
      "outputs": [],
      "stateMutability": "nonpayable",
      "type": "function"
    },
    {
      "inputs": [
        {
          "internalType": "address",
          "name": "owner",
          "type": "address"
        }
      ],
      "name": "balanceOf",
      "outputs": [
        {
          "internalType": "uint256",
          "name": "",
          "type": "uint256"
        }
      ],
      "stateMutability": "view",
      "type": "function"
    },
    {
      "inputs": [
        {
          "internalType": "uint256",
          "name": "tokenId",
          "type": "uint256"
        }
      ],
      "name": "getApproved",
      "outputs": [
        {
          "internalType": "address",
          "name": "",
          "type": "address"
        }
      ],
      "stateMutability": "view",
      "type": "function"
    },
    {
      "inputs": [
        {
          "internalType": "uint256",
          "name": "_itemId",
          "type": "uint256"
        },
        {
          "internalType": "address",
          "name": "_viewer",
          "type": "address"
        }
      ],
      "name": "hasPaidForView",
      "outputs": [
        {
          "internalType": "bool",
          "name": "",
          "type": "bool"
        }
      ],
      "stateMutability": "view",
      "type": "function"
    },
    {
      "inputs": [
        {
          "internalType": "address",
          "name": "owner",
          "type": "address"
        },
        {
          "internalType": "address",
          "name": "operator",
          "type": "address"
        }
      ],
      "name": "isApprovedForAll",
      "outputs": [
        {
          "internalType": "bool",
          "name": "",
          "type": "bool"
        }
      ],
      "stateMutability": "view",
      "type": "function"
    },
    {
      "inputs": [],
      "name": "itemCount",
      "outputs": [
        {
          "internalType": "uint256",
          "name": "",
          "type": "uint256"
        }
      ],
      "stateMutability": "view",
      "type": "function"
    },
    {
      "inputs": [
        {
          "internalType": "uint256",
          "name": "",
          "type": "uint256"
        }
      ],
      "name": "items",
      "outputs": [
        {
          "internalType": "uint256",
          "name": "itemId",
          "type": "uint256"
        },
        {
          "internalType": "uint256",
          "name": "tokenId",
          "type": "uint256"
        },
        {
          "internalType": "uint256",
          "name": "viewFee",
          "type": "uint256"
        },
        {
          "internalType": "address payable",
          "name": "seller",
          "type": "address"
        },
        {
          "internalType": "bool",
          "name": "hasPaidForView",
          "type": "bool"
        },
        {
          "internalType": "address",
          "name": "viewer",
          "type": "address"
        },
        {
          "internalType": "bool",
          "name": "sold",
          "type": "bool"
        }
      ],
      "stateMutability": "view",
      "type": "function"
    },
    {
      "inputs": [
        {
          "internalType": "uint256",
          "name": "tokenId",
          "type": "uint256"
        },
        {
          "internalType": "uint256",
          "name": "_viewFee",
          "type": "uint256"
        }
      ],
      "name": "listNFT",
      "outputs": [],
      "stateMutability": "nonpayable",
      "type": "function"
    },
    {
      "inputs": [
        {
          "internalType": "uint256",
          "name": "",
          "type": "uint256"
        }
      ],
      "name": "listedItems",
      "outputs": [
        {
          "internalType": "uint256",
          "name": "",
          "type": "uint256"
        }
      ],
      "stateMutability": "view",
      "type": "function"
    },
    {
      "inputs": [
        {
          "internalType": "uint256",
          "name": "_itemId",
          "type": "uint256"
        }
      ],
      "name": "markAsSold",
      "outputs": [],
      "stateMutability": "nonpayable",
      "type": "function"
    },
    {
      "inputs": [
        {
          "internalType": "string",
          "name": "_tokenURI",
          "type": "string"
        },
        {
          "internalType": "uint256",
          "name": "_viewFee",
          "type": "uint256"
        }
      ],
      "name": "mint",
      "outputs": [
        {
          "internalType": "uint256",
          "name": "",
          "type": "uint256"
        }
      ],
      "stateMutability": "nonpayable",
      "type": "function"
    },
    {
      "inputs": [],
      "name": "name",
      "outputs": [
        {
          "internalType": "string",
          "name": "",
          "type": "string"
        }
      ],
      "stateMutability": "view",
      "type": "function"
    },
    {
      "inputs": [
        {
          "internalType": "uint256",
          "name": "tokenId",
          "type": "uint256"
        }
      ],
      "name": "ownerOf",
      "outputs": [
        {
          "internalType": "address",
          "name": "",
          "type": "address"
        }
      ],
      "stateMutability": "view",
      "type": "function"
    },
    {
      "inputs": [
        {
          "internalType": "uint256",
          "name": "_itemId",
          "type": "uint256"
        }
      ],
      "name": "payForView",
      "outputs": [],
      "stateMutability": "payable",
      "type": "function"
    },
    {
      "inputs": [
        {
          "internalType": "address",
          "name": "from",
          "type": "address"
        },
        {
          "internalType": "address",
          "name": "to",
          "type": "address"
        },
        {
          "internalType": "uint256",
          "name": "tokenId",
          "type": "uint256"
        }
      ],
      "name": "safeTransferFrom",
      "outputs": [],
      "stateMutability": "nonpayable",
      "type": "function"
    },
    {
      "inputs": [
        {
          "internalType": "address",
          "name": "from",
          "type": "address"
        },
        {
          "internalType": "address",
          "name": "to",
          "type": "address"
        },
        {
          "internalType": "uint256",
          "name": "tokenId",
          "type": "uint256"
        },
        {
          "internalType": "bytes",
          "name": "data",
          "type": "bytes"
        }
      ],
      "name": "safeTransferFrom",
      "outputs": [],
      "stateMutability": "nonpayable",
      "type": "function"
    },
    {
      "inputs": [
        {
          "internalType": "address",
          "name": "operator",
          "type": "address"
        },
        {
          "internalType": "bool",
          "name": "approved",
          "type": "bool"
        }
      ],
      "name": "setApprovalForAll",
      "outputs": [],
      "stateMutability": "nonpayable",
      "type": "function"
    },
    {
      "inputs": [
        {
          "internalType": "bytes4",
          "name": "interfaceId",
          "type": "bytes4"
        }
      ],
      "name": "supportsInterface",
      "outputs": [
        {
          "internalType": "bool",
          "name": "",
          "type": "bool"
        }
      ],
      "stateMutability": "view",
      "type": "function"
    },
    {
      "inputs": [],
      "name": "symbol",
      "outputs": [
        {
          "internalType": "string",
          "name": "",
          "type": "string"
        }
      ],
      "stateMutability": "view",
      "type": "function"
    },
    {
      "inputs": [],
      "name": "tokenCount",
      "outputs": [
        {
          "internalType": "uint256",
          "name": "",
          "type": "uint256"
        }
      ],
      "stateMutability": "view",
      "type": "function"
    },
    {
      "inputs": [
        {
          "internalType": "uint256",
          "name": "tokenId",
          "type": "uint256"
        }
      ],
      "name": "tokenURI",
      "outputs": [
        {
          "internalType": "string",
          "name": "",
          "type": "string"
        }
      ],
      "stateMutability": "view",
      "type": "function"
    },
    {
      "inputs": [
        {
          "internalType": "address",
          "name": "from",
          "type": "address"
        },
        {
          "internalType": "address",
          "name": "to",
          "type": "address"
        },
        {
          "internalType": "uint256",
          "name": "tokenId",
          "type": "uint256"
        }
      ],
      "name": "transferFrom",
      "outputs": [],
      "stateMutability": "nonpayable",
      "type": "function"
    }
  ],
  "bytecode": "0x60806040523480156200001157600080fd5b506040518060400160405280600581526020017f4d794e66740000000000000000000000000000000000000000000000000000008152506040518060400160405280600481526020017f4d4e46540000000000000000000000000000000000000000000000000000000081525081600090816200008f919062000324565b508060019081620000a1919062000324565b5050506200040b565b600081519050919050565b7f4e487b7100000000000000000000000000000000000000000000000000000000600052604160045260246000fd5b7f4e487b7100000000000000000000000000000000000000000000000000000000600052602260045260246000fd5b600060028204905060018216806200012c57607f821691505b602082108103620001425762000141620000e4565b5b50919050565b60008190508160005260206000209050919050565b60006020601f8301049050919050565b600082821b905092915050565b600060088302620001ac7fffffffffffffffffffffffffffffffffffffffffffffffffffffffffffffffff826200016d565b620001b886836200016d565b95508019841693508086168417925050509392505050565b6000819050919050565b6000819050919050565b600062000205620001ff620001f984620001d0565b620001da565b620001d0565b9050919050565b6000819050919050565b6200022183620001e4565b6200023962000230826200020c565b8484546200017a565b825550505050565b600090565b6200025062000241565b6200025d81848462000216565b505050565b5b8181101562000285576200027960008262000246565b60018101905062000263565b5050565b601f821115620002d4576200029e8162000148565b620002a9846200015d565b81016020851015620002b9578190505b620002d1620002c8856200015d565b83018262000262565b50505b505050565b600082821c905092915050565b6000620002f960001984600802620002d9565b1980831691505092915050565b6000620003148383620002e6565b9150826002028217905092915050565b6200032f82620000aa565b67ffffffffffffffff8111156200034b576200034a620000b5565b5b62000357825462000113565b6200036482828562000289565b600060209050601f8311600181146200039c576000841562000387578287015190505b62000393858262000306565b86555062000403565b601f198416620003ac8662000148565b60005b82811015620003d657848901518255600182019150602085019450602081019050620003af565b86831015620003f65784890151620003f2601f891682620002e6565b8355505b6001600288020188555050505b505050505050565b613329806200041b6000396000f3fe6080604052600436106101355760003560e01c80636bfb0d01116100ab578063a22cb4651161006f578063a22cb4651461043d578063b88d4fde14610466578063bfb231d21461048f578063c87b56dd146104d2578063d23470611461050f578063e985e9c51461054c57610135565b80636bfb0d011461035657806370a082311461038157806394383f14146103be57806395d89b41146103e75780639f181b5e1461041257610135565b806311452031116100fd578063114520311461024557806323b872dd146102615780632931a1081461028a57806342842e0e146102b35780634cc58702146102dc5780636352211e1461031957610135565b806301ffc9a71461013a578063056b01ce1461017757806306fdde03146101b4578063081812fc146101df578063095ea7b31461021c575b600080fd5b34801561014657600080fd5b50610161600480360381019061015c91906122d4565b610589565b60405161016e919061231c565b60405180910390f35b34801561018357600080fd5b5061019e600480360381019061019991906124b3565b6105ea565b6040516101ab919061251e565b60405180910390f35b3480156101c057600080fd5b506101c961080f565b6040516101d691906125b8565b60405180910390f35b3480156101eb57600080fd5b50610206600480360381019061020191906125da565b6108a1565b6040516102139190612648565b60405180910390f35b34801561022857600080fd5b50610243600480360381019061023e919061268f565b6108bd565b005b61025f600480360381019061025a91906125da565b6108d3565b005b34801561026d57600080fd5b50610288600480360381019061028391906126cf565b610b96565b005b34801561029657600080fd5b506102b160048036038101906102ac91906125da565b610c98565b005b3480156102bf57600080fd5b506102da60048036038101906102d591906126cf565b610d62565b005b3480156102e857600080fd5b5061030360048036038101906102fe9190612722565b610d82565b604051610310919061231c565b60405180910390f35b34801561032557600080fd5b50610340600480360381019061033b91906125da565b610e1d565b60405161034d9190612648565b60405180910390f35b34801561036257600080fd5b5061036b610e2f565b604051610378919061251e565b60405180910390f35b34801561038d57600080fd5b506103a860048036038101906103a39190612762565b610e35565b6040516103b5919061251e565b60405180910390f35b3480156103ca57600080fd5b506103e560048036038101906103e0919061278f565b610eef565b005b3480156103f357600080fd5b506103fc611016565b60405161040991906125b8565b60405180910390f35b34801561041e57600080fd5b506104276110a8565b604051610434919061251e565b60405180910390f35b34801561044957600080fd5b50610464600480360381019061045f91906127fb565b6110ae565b005b34801561047257600080fd5b5061048d600480360381019061048891906128dc565b6110c4565b005b34801561049b57600080fd5b506104b660048036038101906104b191906125da565b6110e9565b6040516104c99796959493929190612980565b60405180910390f35b3480156104de57600080fd5b506104f960048036038101906104f491906125da565b611185565b60405161050691906125b8565b60405180910390f35b34801561051b57600080fd5b50610536600480360381019061053191906125da565b611298565b604051610543919061251e565b60405180910390f35b34801561055857600080fd5b50610573600480360381019061056e91906129ef565b6112b0565b604051610580919061231c565b60405180910390f35b6000634906490660e01b7bffffffffffffffffffffffffffffffffffffffffffffffffffffffff1916827bffffffffffffffffffffffffffffffffffffffffffffffffffffffff191614806105e357506105e282611344565b5b9050919050565b6000600760008154809291906105ff90612a5e565b91905055506008600081548092919061061790612a5e565b919050555061062833600754611426565b61063460075484611444565b6040518060e00160405280600854815260200160075481526020018381526020013373ffffffffffffffffffffffffffffffffffffffff168152602001600015158152602001600073ffffffffffffffffffffffffffffffffffffffff1681526020016000151581525060096000600854815260200190815260200160002060008201518160000155602082015181600101556040820151816002015560608201518160030160006101000a81548173ffffffffffffffffffffffffffffffffffffffff021916908373ffffffffffffffffffffffffffffffffffffffff16021790555060808201518160030160146101000a81548160ff02191690831515021790555060a08201518160040160006101000a81548173ffffffffffffffffffffffffffffffffffffffff021916908373ffffffffffffffffffffffffffffffffffffffff16021790555060c08201518160040160146101000a81548160ff0219169083151502179055509050503373ffffffffffffffffffffffffffffffffffffffff167fd846d2cfaaa23a2723be747ef18b5d16a1484d901d581da4843cc27638c862ad600854600754856040516107f093929190612aa6565b60405180910390a261080460075483610eef565b600754905092915050565b60606000805461081e90612b0c565b80601f016020809104026020016040519081016040528092919081815260200182805461084a90612b0c565b80156108975780601f1061086c57610100808354040283529160200191610897565b820191906000526020600020905b81548152906001019060200180831161087a57829003601f168201915b5050505050905090565b60006108ac826114a0565b506108b682611528565b9050919050565b6108cf82826108ca611565565b61156d565b5050565b600060096000838152602001908152602001600020905060008160020154905080341015610936576040517f08c379a000000000000000000000000000000000000000000000000000000000815260040161092d90612baf565b60405180910390fd5b8160030160009054906101000a900473ffffffffffffffffffffffffffffffffffffffff1673ffffffffffffffffffffffffffffffffffffffff163373ffffffffffffffffffffffffffffffffffffffff16036109c8576040517f08c379a00000000000000000000000000000000000000000000000000000000081526004016109bf90612c41565b60405180910390fd5b8160030160149054906101000a900460ff1615610a1a576040517f08c379a0000000000000000000000000000000000000000000000000000000008152600401610a1190612cd3565b60405180910390fd5b8160040160149054906101000a900460ff1615610a6c576040517f08c379a0000000000000000000000000000000000000000000000000000000008152600401610a6390612d3f565b60405180910390fd5b8160030160009054906101000a900473ffffffffffffffffffffffffffffffffffffffff1673ffffffffffffffffffffffffffffffffffffffff166108fc829081150290604051600060405180830381858888f19350505050158015610ad6573d6000803e3d6000fd5b5060018260030160146101000a81548160ff021916908315150217905550338260040160006101000a81548173ffffffffffffffffffffffffffffffffffffffff021916908373ffffffffffffffffffffffffffffffffffffffff1602179055503373ffffffffffffffffffffffffffffffffffffffff167fba6a29d6979d711fc2f1befeb59fc8fcff83a027df8e92107d1c325e750d18d48484600101548560020154604051610b8993929190612aa6565b60405180910390a2505050565b600073ffffffffffffffffffffffffffffffffffffffff168273ffffffffffffffffffffffffffffffffffffffff1603610c085760006040517f64a0ae92000000000000000000000000000000000000000000000000000000008152600401610bff9190612648565b60405180910390fd5b6000610c1c8383610c17611565565b61157f565b90508373ffffffffffffffffffffffffffffffffffffffff168173ffffffffffffffffffffffffffffffffffffffff1614610c92578382826040517f64283d7b000000000000000000000000000000000000000000000000000000008152600401610c8993929190612d5f565b60405180910390fd5b50505050565b60006009600083815260200190815260200160002090508060030160009054906101000a900473ffffffffffffffffffffffffffffffffffffffff1673ffffffffffffffffffffffffffffffffffffffff163373ffffffffffffffffffffffffffffffffffffffff1614610d41576040517f08c379a0000000000000000000000000000000000000000000000000000000008152600401610d3890612de2565b60405180910390fd5b60018160040160146101000a81548160ff0219169083151502179055505050565b610d7d838383604051806020016040528060008152506110c4565b505050565b60008173ffffffffffffffffffffffffffffffffffffffff166009600085815260200190815260200160002060040160009054906101000a900473ffffffffffffffffffffffffffffffffffffffff1673ffffffffffffffffffffffffffffffffffffffff16148015610e1557506009600084815260200190815260200160002060030160149054906101000a900460ff165b905092915050565b6000610e28826114a0565b9050919050565b60085481565b60008073ffffffffffffffffffffffffffffffffffffffff168273ffffffffffffffffffffffffffffffffffffffff1603610ea85760006040517f89c62b64000000000000000000000000000000000000000000000000000000008152600401610e9f9190612648565b60405180910390fd5b600360008373ffffffffffffffffffffffffffffffffffffffff1673ffffffffffffffffffffffffffffffffffffffff168152602001908152602001600020549050919050565b3373ffffffffffffffffffffffffffffffffffffffff16610f0f83610e1d565b73ffffffffffffffffffffffffffffffffffffffff1614610f65576040517f08c379a0000000000000000000000000000000000000000000000000000000008152600401610f5c90612e4e565b60405180910390fd5b60008111610fa8576040517f08c379a0000000000000000000000000000000000000000000000000000000008152600401610f9f90612eba565b60405180910390fd5b80600a6000848152602001908152602001600020819055503373ffffffffffffffffffffffffffffffffffffffff167fd846d2cfaaa23a2723be747ef18b5d16a1484d901d581da4843cc27638c862ad83848460405161100a93929190612aa6565b60405180910390a25050565b60606001805461102590612b0c565b80601f016020809104026020016040519081016040528092919081815260200182805461105190612b0c565b801561109e5780601f106110735761010080835404028352916020019161109e565b820191906000526020600020905b81548152906001019060200180831161108157829003601f168201915b5050505050905090565b60075481565b6110c06110b9611565565b8383611799565b5050565b6110cf848484610b96565b6110e36110da611565565b85858585611908565b50505050565b60096020528060005260406000206000915090508060000154908060010154908060020154908060030160009054906101000a900473ffffffffffffffffffffffffffffffffffffffff16908060030160149054906101000a900460ff16908060040160009054906101000a900473ffffffffffffffffffffffffffffffffffffffff16908060040160149054906101000a900460ff16905087565b6060611190826114a0565b5060006006600084815260200190815260200160002080546111b190612b0c565b80601f01602080910402602001604051908101604052809291908181526020018280546111dd90612b0c565b801561122a5780601f106111ff5761010080835404028352916020019161122a565b820191906000526020600020905b81548152906001019060200180831161120d57829003601f168201915b50505050509050600061123b611ab9565b90506000815103611250578192505050611293565b60008251111561128557808260405160200161126d929190612f16565b60405160208183030381529060405292505050611293565b61128e84611ad0565b925050505b919050565b600a6020528060005260406000206000915090505481565b6000600560008473ffffffffffffffffffffffffffffffffffffffff1673ffffffffffffffffffffffffffffffffffffffff16815260200190815260200160002060008373ffffffffffffffffffffffffffffffffffffffff1673ffffffffffffffffffffffffffffffffffffffff16815260200190815260200160002060009054906101000a900460ff16905092915050565b60007f80ac58cd000000000000000000000000000000000000000000000000000000007bffffffffffffffffffffffffffffffffffffffffffffffffffffffff1916827bffffffffffffffffffffffffffffffffffffffffffffffffffffffff1916148061140f57507f5b5e139f000000000000000000000000000000000000000000000000000000007bffffffffffffffffffffffffffffffffffffffffffffffffffffffff1916827bffffffffffffffffffffffffffffffffffffffffffffffffffffffff1916145b8061141f575061141e82611b39565b5b9050919050565b611440828260405180602001604052806000815250611ba3565b5050565b8060066000848152602001908152602001600020908161146491906130e6565b507ff8e1a15aba9398e019f0b49df1a4fde98ee17ae345cb5f6b5e2c27f5033e8ce782604051611494919061251e565b60405180910390a15050565b6000806114ac83611bc7565b9050600073ffffffffffffffffffffffffffffffffffffffff168173ffffffffffffffffffffffffffffffffffffffff160361151f57826040517f7e273289000000000000000000000000000000000000000000000000000000008152600401611516919061251e565b60405180910390fd5b80915050919050565b60006004600083815260200190815260200160002060009054906101000a900473ffffffffffffffffffffffffffffffffffffffff169050919050565b600033905090565b61157a8383836001611c04565b505050565b60008061158b84611bc7565b9050600073ffffffffffffffffffffffffffffffffffffffff168373ffffffffffffffffffffffffffffffffffffffff16146115cd576115cc818486611dc9565b5b600073ffffffffffffffffffffffffffffffffffffffff168173ffffffffffffffffffffffffffffffffffffffff161461165e5761160f600085600080611c04565b6001600360008373ffffffffffffffffffffffffffffffffffffffff1673ffffffffffffffffffffffffffffffffffffffff168152602001908152602001600020600082825403925050819055505b600073ffffffffffffffffffffffffffffffffffffffff168573ffffffffffffffffffffffffffffffffffffffff16146116e1576001600360008773ffffffffffffffffffffffffffffffffffffffff1673ffffffffffffffffffffffffffffffffffffffff168152602001908152602001600020600082825401925050819055505b846002600086815260200190815260200160002060006101000a81548173ffffffffffffffffffffffffffffffffffffffff021916908373ffffffffffffffffffffffffffffffffffffffff160217905550838573ffffffffffffffffffffffffffffffffffffffff168273ffffffffffffffffffffffffffffffffffffffff167fddf252ad1be2c89b69c2b068fc378daa952ba7f163c4a11628f55a4df523b3ef60405160405180910390a4809150509392505050565b600073ffffffffffffffffffffffffffffffffffffffff168273ffffffffffffffffffffffffffffffffffffffff160361180a57816040517f5b08ba180000000000000000000000000000000000000000000000000000000081526004016118019190612648565b60405180910390fd5b80600560008573ffffffffffffffffffffffffffffffffffffffff1673ffffffffffffffffffffffffffffffffffffffff16815260200190815260200160002060008473ffffffffffffffffffffffffffffffffffffffff1673ffffffffffffffffffffffffffffffffffffffff16815260200190815260200160002060006101000a81548160ff0219169083151502179055508173ffffffffffffffffffffffffffffffffffffffff168373ffffffffffffffffffffffffffffffffffffffff167f17307eab39ab6107e8899845ad3d59bd9653f200f220920489ca2b5937696c31836040516118fb919061231c565b60405180910390a3505050565b60008373ffffffffffffffffffffffffffffffffffffffff163b1115611ab2578273ffffffffffffffffffffffffffffffffffffffff1663150b7a02868685856040518563ffffffff1660e01b8152600401611967949392919061320d565b6020604051808303816000875af19250505080156119a357506040513d601f19601f820116820180604052508101906119a0919061326e565b60015b611a27573d80600081146119d3576040519150601f19603f3d011682016040523d82523d6000602084013e6119d8565b606091505b506000815103611a1f57836040517f64a0ae92000000000000000000000000000000000000000000000000000000008152600401611a169190612648565b60405180910390fd5b805181602001fd5b63150b7a0260e01b7bffffffffffffffffffffffffffffffffffffffffffffffffffffffff1916817bffffffffffffffffffffffffffffffffffffffffffffffffffffffff191614611ab057836040517f64a0ae92000000000000000000000000000000000000000000000000000000008152600401611aa79190612648565b60405180910390fd5b505b5050505050565b606060405180602001604052806000815250905090565b6060611adb826114a0565b506000611ae6611ab9565b90506000815111611b065760405180602001604052806000815250611b31565b80611b1084611e8d565b604051602001611b21929190612f16565b6040516020818303038152906040525b915050919050565b60007f01ffc9a7000000000000000000000000000000000000000000000000000000007bffffffffffffffffffffffffffffffffffffffffffffffffffffffff1916827bffffffffffffffffffffffffffffffffffffffffffffffffffffffff1916149050919050565b611bad8383611f5b565b611bc2611bb8611565565b6000858585611908565b505050565b60006002600083815260200190815260200160002060009054906101000a900473ffffffffffffffffffffffffffffffffffffffff169050919050565b8080611c3d5750600073ffffffffffffffffffffffffffffffffffffffff168273ffffffffffffffffffffffffffffffffffffffff1614155b15611d71576000611c4d846114a0565b9050600073ffffffffffffffffffffffffffffffffffffffff168373ffffffffffffffffffffffffffffffffffffffff1614158015611cb857508273ffffffffffffffffffffffffffffffffffffffff168173ffffffffffffffffffffffffffffffffffffffff1614155b8015611ccb5750611cc981846112b0565b155b15611d0d57826040517fa9fbf51f000000000000000000000000000000000000000000000000000000008152600401611d049190612648565b60405180910390fd5b8115611d6f57838573ffffffffffffffffffffffffffffffffffffffff168273ffffffffffffffffffffffffffffffffffffffff167f8c5be1e5ebec7d5bd14f71427d1e84f3dd0314c0f7b2291e5b200ac8c7c3b92560405160405180910390a45b505b836004600085815260200190815260200160002060006101000a81548173ffffffffffffffffffffffffffffffffffffffff021916908373ffffffffffffffffffffffffffffffffffffffff16021790555050505050565b611dd4838383612054565b611e8857600073ffffffffffffffffffffffffffffffffffffffff168373ffffffffffffffffffffffffffffffffffffffff1603611e4957806040517f7e273289000000000000000000000000000000000000000000000000000000008152600401611e40919061251e565b60405180910390fd5b81816040517f177e802f000000000000000000000000000000000000000000000000000000008152600401611e7f92919061329b565b60405180910390fd5b505050565b606060006001611e9c84612115565b01905060008167ffffffffffffffff811115611ebb57611eba612352565b5b6040519080825280601f01601f191660200182016040528015611eed5781602001600182028036833780820191505090505b509050600082602001820190505b600115611f50578080600190039150507f3031323334353637383961626364656600000000000000000000000000000000600a86061a8153600a8581611f4457611f436132c4565b5b04945060008503611efb575b819350505050919050565b600073ffffffffffffffffffffffffffffffffffffffff168273ffffffffffffffffffffffffffffffffffffffff1603611fcd5760006040517f64a0ae92000000000000000000000000000000000000000000000000000000008152600401611fc49190612648565b60405180910390fd5b6000611fdb8383600061157f565b9050600073ffffffffffffffffffffffffffffffffffffffff168173ffffffffffffffffffffffffffffffffffffffff161461204f5760006040517f73c6ac6e0000000000000000000000000000000000000000000000000000000081526004016120469190612648565b60405180910390fd5b505050565b60008073ffffffffffffffffffffffffffffffffffffffff168373ffffffffffffffffffffffffffffffffffffffff161415801561210c57508273ffffffffffffffffffffffffffffffffffffffff168473ffffffffffffffffffffffffffffffffffffffff1614806120cd57506120cc84846112b0565b5b8061210b57508273ffffffffffffffffffffffffffffffffffffffff166120f383611528565b73ffffffffffffffffffffffffffffffffffffffff16145b5b90509392505050565b600080600090507a184f03e93ff9f4daa797ed6e38ed64bf6a1f0100000000000000008310612173577a184f03e93ff9f4daa797ed6e38ed64bf6a1f0100000000000000008381612169576121686132c4565b5b0492506040810190505b6d04ee2d6d415b85acef810000000083106121b0576d04ee2d6d415b85acef810000000083816121a6576121a56132c4565b5b0492506020810190505b662386f26fc1000083106121df57662386f26fc1000083816121d5576121d46132c4565b5b0492506010810190505b6305f5e1008310612208576305f5e10083816121fe576121fd6132c4565b5b0492506008810190505b612710831061222d576127108381612223576122226132c4565b5b0492506004810190505b606483106122505760648381612246576122456132c4565b5b0492506002810190505b600a831061225f576001810190505b80915050919050565b6000604051905090565b600080fd5b600080fd5b60007fffffffff0000000000000000000000000000000000000000000000000000000082169050919050565b6122b18161227c565b81146122bc57600080fd5b50565b6000813590506122ce816122a8565b92915050565b6000602082840312156122ea576122e9612272565b5b60006122f8848285016122bf565b91505092915050565b60008115159050919050565b61231681612301565b82525050565b6000602082019050612331600083018461230d565b92915050565b600080fd5b600080fd5b6000601f19601f8301169050919050565b7f4e487b7100000000000000000000000000000000000000000000000000000000600052604160045260246000fd5b61238a82612341565b810181811067ffffffffffffffff821117156123a9576123a8612352565b5b80604052505050565b60006123bc612268565b90506123c88282612381565b919050565b600067ffffffffffffffff8211156123e8576123e7612352565b5b6123f182612341565b9050602081019050919050565b82818337600083830152505050565b600061242061241b846123cd565b6123b2565b90508281526020810184848401111561243c5761243b61233c565b5b6124478482856123fe565b509392505050565b600082601f83011261246457612463612337565b5b813561247484826020860161240d565b91505092915050565b6000819050919050565b6124908161247d565b811461249b57600080fd5b50565b6000813590506124ad81612487565b92915050565b600080604083850312156124ca576124c9612272565b5b600083013567ffffffffffffffff8111156124e8576124e7612277565b5b6124f48582860161244f565b92505060206125058582860161249e565b9150509250929050565b6125188161247d565b82525050565b6000602082019050612533600083018461250f565b92915050565b600081519050919050565b600082825260208201905092915050565b60005b83811015612573578082015181840152602081019050612558565b60008484015250505050565b600061258a82612539565b6125948185612544565b93506125a4818560208601612555565b6125ad81612341565b840191505092915050565b600060208201905081810360008301526125d2818461257f565b905092915050565b6000602082840312156125f0576125ef612272565b5b60006125fe8482850161249e565b91505092915050565b600073ffffffffffffffffffffffffffffffffffffffff82169050919050565b600061263282612607565b9050919050565b61264281612627565b82525050565b600060208201905061265d6000830184612639565b92915050565b61266c81612627565b811461267757600080fd5b50565b60008135905061268981612663565b92915050565b600080604083850312156126a6576126a5612272565b5b60006126b48582860161267a565b92505060206126c58582860161249e565b9150509250929050565b6000806000606084860312156126e8576126e7612272565b5b60006126f68682870161267a565b93505060206127078682870161267a565b92505060406127188682870161249e565b9150509250925092565b6000806040838503121561273957612738612272565b5b60006127478582860161249e565b92505060206127588582860161267a565b9150509250929050565b60006020828403121561277857612777612272565b5b60006127868482850161267a565b91505092915050565b600080604083850312156127a6576127a5612272565b5b60006127b48582860161249e565b92505060206127c58582860161249e565b9150509250929050565b6127d881612301565b81146127e357600080fd5b50565b6000813590506127f5816127cf565b92915050565b6000806040838503121561281257612811612272565b5b60006128208582860161267a565b9250506020612831858286016127e6565b9150509250929050565b600067ffffffffffffffff82111561285657612855612352565b5b61285f82612341565b9050602081019050919050565b600061287f61287a8461283b565b6123b2565b90508281526020810184848401111561289b5761289a61233c565b5b6128a68482856123fe565b509392505050565b600082601f8301126128c3576128c2612337565b5b81356128d384826020860161286c565b91505092915050565b600080600080608085870312156128f6576128f5612272565b5b60006129048782880161267a565b94505060206129158782880161267a565b93505060406129268782880161249e565b925050606085013567ffffffffffffffff81111561294757612946612277565b5b612953878288016128ae565b91505092959194509250565b600061296a82612607565b9050919050565b61297a8161295f565b82525050565b600060e082019050612995600083018a61250f565b6129a2602083018961250f565b6129af604083018861250f565b6129bc6060830187612971565b6129c9608083018661230d565b6129d660a0830185612639565b6129e360c083018461230d565b98975050505050505050565b60008060408385031215612a0657612a05612272565b5b6000612a148582860161267a565b9250506020612a258582860161267a565b9150509250929050565b7f4e487b7100000000000000000000000000000000000000000000000000000000600052601160045260246000fd5b6000612a698261247d565b91507fffffffffffffffffffffffffffffffffffffffffffffffffffffffffffffffff8203612a9b57612a9a612a2f565b5b600182019050919050565b6000606082019050612abb600083018661250f565b612ac8602083018561250f565b612ad5604083018461250f565b949350505050565b7f4e487b7100000000000000000000000000000000000000000000000000000000600052602260045260246000fd5b60006002820490506001821680612b2457607f821691505b602082108103612b3757612b36612add565b5b50919050565b7f4e6f7420656e6f75676820657468657220746f20636f7665722076696577206660008201527f6565000000000000000000000000000000000000000000000000000000000000602082015250565b6000612b99602283612544565b9150612ba482612b3d565b604082019050919050565b60006020820190508181036000830152612bc881612b8c565b9050919050565b7f53656c6c65722063616e6e6f742070617920666f72207468656972206f776e2060008201527f7669657700000000000000000000000000000000000000000000000000000000602082015250565b6000612c2b602483612544565b9150612c3682612bcf565b604082019050919050565b60006020820190508181036000830152612c5a81612c1e565b9050919050565b7f596f75206861766520616c7265616479207061696420746f207669657720746860008201527f6973204e46540000000000000000000000000000000000000000000000000000602082015250565b6000612cbd602683612544565b9150612cc882612c61565b604082019050919050565b60006020820190508181036000830152612cec81612cb0565b9050919050565b7f4974656d20686173206265656e20736f6c6420616c7265616479000000000000600082015250565b6000612d29601a83612544565b9150612d3482612cf3565b602082019050919050565b60006020820190508181036000830152612d5881612d1c565b9050919050565b6000606082019050612d746000830186612639565b612d81602083018561250f565b612d8e6040830184612639565b949350505050565b7f4f6e6c792073656c6c65722063616e206d61726b20617320736f6c6400000000600082015250565b6000612dcc601c83612544565b9150612dd782612d96565b602082019050919050565b60006020820190508181036000830152612dfb81612dbf565b9050919050565b7f596f7520646f206e6f74206f776e2074686973204e4654000000000000000000600082015250565b6000612e38601783612544565b9150612e4382612e02565b602082019050919050565b60006020820190508181036000830152612e6781612e2b565b9050919050565b7f5669657720666565206d7573742062652067726561746572207468616e203000600082015250565b6000612ea4601f83612544565b9150612eaf82612e6e565b602082019050919050565b60006020820190508181036000830152612ed381612e97565b9050919050565b600081905092915050565b6000612ef082612539565b612efa8185612eda565b9350612f0a818560208601612555565b80840191505092915050565b6000612f228285612ee5565b9150612f2e8284612ee5565b91508190509392505050565b60008190508160005260206000209050919050565b60006020601f8301049050919050565b600082821b905092915050565b600060088302612f9c7fffffffffffffffffffffffffffffffffffffffffffffffffffffffffffffffff82612f5f565b612fa68683612f5f565b95508019841693508086168417925050509392505050565b6000819050919050565b6000612fe3612fde612fd98461247d565b612fbe565b61247d565b9050919050565b6000819050919050565b612ffd83612fc8565b61301161300982612fea565b848454612f6c565b825550505050565b600090565b613026613019565b613031818484612ff4565b505050565b5b818110156130555761304a60008261301e565b600181019050613037565b5050565b601f82111561309a5761306b81612f3a565b61307484612f4f565b81016020851015613083578190505b61309761308f85612f4f565b830182613036565b50505b505050565b600082821c905092915050565b60006130bd6000198460080261309f565b1980831691505092915050565b60006130d683836130ac565b9150826002028217905092915050565b6130ef82612539565b67ffffffffffffffff81111561310857613107612352565b5b6131128254612b0c565b61311d828285613059565b600060209050601f831160018114613150576000841561313e578287015190505b61314885826130ca565b8655506131b0565b601f19841661315e86612f3a565b60005b8281101561318657848901518255600182019150602085019450602081019050613161565b868310156131a3578489015161319f601f8916826130ac565b8355505b6001600288020188555050505b505050505050565b600081519050919050565b600082825260208201905092915050565b60006131df826131b8565b6131e981856131c3565b93506131f9818560208601612555565b61320281612341565b840191505092915050565b60006080820190506132226000830187612639565b61322f6020830186612639565b61323c604083018561250f565b818103606083015261324e81846131d4565b905095945050505050565b600081519050613268816122a8565b92915050565b60006020828403121561328457613283612272565b5b600061329284828501613259565b91505092915050565b60006040820190506132b06000830185612639565b6132bd602083018461250f565b9392505050565b7f4e487b7100000000000000000000000000000000000000000000000000000000600052601260045260246000fdfea264697066735822122079cf26b8a3956f887713955d1133f3d51ac0a2a33c341a9d68c77ccaac9ca8ea64736f6c63430008140033",
  "linkReferences": {},
  "deployedLinkReferences": {}
}